:100000000C9434000C9451000C9451000C94510049
:100010000C9451000C9451000C9451000C9451001C
:100020000C9451000C9451000C9451000C9451000C
:100030000C9451000C9451000C9451000C945100FC
:100040000C9451000C9451000C94A2040C94D5040F
:100050000C9451000C9451000C9451000C945100DC
:100060000C9451000C94510011241FBECFEFD8E026
:10007000DEBFCDBF11E0A0E0B1E0ECE3F3E102C0F0
:1000800005900D92A631B107D9F711E0A6E1B1E0D4
:1000900001C01D92A236B107E1F70E9453080C94EB
:1000A0009C090C940000A0E2B0E0E9E5F0E00C94BB
:1000B0004C096D8F7E8F8F8F98A3298F3A8F4B8F2E
:1000C0005C8FBE016F5E7F4FCE014D960E947F0315
:1000D000BE01675F7F4FCE0149960E947F039989D9
:1000E000923008F412C08985823008F41AC0943026
:1000F00021F4823009F4B4C008C0843021F4923075
:1001000009F4AEC00EC0923051F481E02A899A857C
:10011000291301C080E08A8BCE014196A3C08230B2
:1001200051F481E02A899A85291301C080E08A87E9
:10013000CE01099697C08D889E88AF88B88C0D85B2
:100140001E852F853889E0E2F0E080E090E0DC0158
:10015000C12CD12C760140E050E0BA0180FE18C0DD
:10016000400F511F621F731F8C0D9D1DAE1DBF1DC3
:10017000412C512C320143944017510762077307F9
:1001800018F0412C512C3201840D951DA61DB71D70
:10019000CC0CDD1CEE1CFF1C37FF02C06894C0F8BD
:1001A000000F111F221F331FB694A79497948794B2
:1001B0003197A1F62B893C89EB85FC852E0F3F1FDB
:1001C0002E5F3F4F3C832B8321E0EA893A85E3137E
:1001D00001C020E02A83EB81FC810CC080FF05C0B8
:1001E00076956795579547957068B695A7959795B5
:1001F00087953196B7FDF2CF9F010CC0880F991FEC
:10020000AA1FBB1F77FD8160440F551F661F771F14
:10021000215031090097A105E0E4BE0778F32B8354
:100220003C838C019D010F7711272227332700344F
:1002300011052105310559F487FD09C0452B462BD1
:10024000472B29F0805C9F4FAF4FBF4F80788D8345
:100250009E83AF83B88783E08983CE01019602C075
:100260008EE091E00E94B502A096E0E10C9468094E
:10027000A8E1B0E0EEE3F1E00C9454096D8B7E8BC5
:100280008F8B988F298B3A8B4B8B5C8BBE01675F72
:100290007F4FCE0145960E947F03BE016F5F7F4F67
:1002A000CE0141960E947F039985923008F475C073
:1002B0008981823008F474C02A853A8123272A87ED
:1002C000943011F0923019F4981367C06CC08430E8
:1002D00039F41D861E861F86188A1C861B8604C05C
:1002E000823029F484E08987CE0109965EC08B852F
:1002F0009C852B813C81821B930B9C878B874D8532
:100300005E856F857889CD80DE80EF80F8844C151E
:100310005D056E057F0538F4440F551F661F771F76
:1003200001979C878B87EFE1F0E000E010E020E090
:1003300030E480E090E0DC014C155D056E057F0542
:1003400040F0802B912BA22BB32B4C195D096E0929
:100350007F093695279517950795440F551F661FFA
:10036000771F319749F78C019D010F7711272227BD
:100370003327003411052105310559F487FD09C0E3
:10038000452B462B472B29F0805C9F4FAF4FBF4F2B
:1003900080788D879E87AF87B88BCE01099605C080
:1003A000CE01019602C08EE091E00E94B5026896EF
:1003B000E8E00C947009A8E1B0E0E1EEF1E00C9403
:1003C0005A096D8B7E8B8F8B988F298B3A8B4B8B39
:1003D0005C8BBE01675F7F4FCE0145960E947F0315
:1003E000BE016F5F7F4FCE0141960E947F038985DA
:1003F000823058F08981823040F0BE016F5F7F4FBC
:10040000CE0109960E94EE0301C08FEF6896E2E0EC
:100410000C947609A8E0B0E0E0E1F2E00C94580911
:1004200023E029838B019C01002737FD03951127C9
:1004300022273327402F0A83611571058105910515
:1004400019F482E0898335C02EE130E03C832B83B0
:10045000442371F061157105810520E8920771F15F
:10046000002711279801061B170B280B390B02C018
:100470008B019C01C901B8010E94810901971816DE
:1004800019062CF00D831E832F83388712C0082E87
:1004900004C0000F111F221F331F0A94D2F70D83CF
:1004A0001E832F8338872EE130E0281B390B3C83D5
:1004B0002B83CE0101960E94B50204C060E070E07B
:1004C00080E09FEC2896E4E00C947409ACE0B0E086
:1004D000ECE6F2E00C94580969877A878B879C8751
:1004E000BE016F5F7F4FCE0109960E947F03898115
:1004F000823091F1823080F1843041F48A81882306
:1005000031F100E010E020E030E829C02B813C818F
:1005100037FD22C02F3131058CF78EE190E0821B30
:10052000930B0D811E812F81388504C03695279548
:10053000179507958A95D2F78A81882381F030959F
:100540002095109501951F4F2F4F3F4F08C00FEF7B
:100550001FEF2FEF3FE703C000E010E09801B80164
:10056000C9012C96E4E00C9474090F931F93CF9368
:10057000DF93DC0114964D915D916D917C911797FD
:100580001196EC9111978C91823020F460618FEF7D
:1005900090E0A6C0843009F49EC0823009F495C072
:1005A000411551056105710509F492C012962D910E
:1005B0003C91139722388FEF38070CF058C0C2E8EF
:1005C000DFEFC21BD30BCA31D1056CF58A019B0149
:1005D0000C2E04C036952795179507950A94D2F7E7
:1005E00081E090E0A0E0B0E00C2E04C0880F991FDD
:1005F000AA1FBB1F0A94D2F70197A109B10984234E
:100600009523A623B72341E050E060E070E0892BFA
:100610008A2B8B2B19F440E050E0BA01402B512B70
:10062000622B732B03C040E050E0BA01DB01CA012A
:100630008F779927AA27BB2780349105A105B1059B
:1006400039F447FF09C0405C5F4F6F4F7F4F04C0D4
:10065000415C5F4F6F4F7F4F81E090E04115510546
:10066000610520E4720748F580E090E026C020385C
:1006700031058CF5DB01CA018F779927AA27BB27A3
:1006800080349105A105B10539F447FF09C0405CEC
:100690005F4F6F4F7F4F04C0415C5F4F6F4F7F4F85
:1006A00077FD04C0C90181589F4F07C076956795B3
:1006B00057954795C90180589F4F97E07695679564
:1006C000579547959A95D1F70BC080E090E005C00B
:1006D00080E090E005C08FEF90E040E050E0BA018C
:1006E000982F9695E0FB97F9362F80FB37F9642F0A
:1006F000752F832FDF91CF911F910F910895CF9286
:10070000DF92EF92DC01FB01CC901196DC90119707
:1007100012968C9112973FE7E32EE8226E2DA601E8
:1007200070E0982F991F9927991F13962C91822F6B
:10073000880F892B90E027FB222720F9218300973F
:1007400029F5411551056105710511F482E027C0B5
:1007500082E89FEF9383828327E0440F551F661F33
:10076000771F2A95D1F783E0808309C0440F551F76
:10077000661F771F8281938101979383828341153E
:100780005105610580E4780788F320C08F3F91050B
:1007900079F4411551056105710519F484E08083F0
:1007A00019C0E4FE03C081E0808310C010820EC037
:1007B0008F5791099383828383E0808387E0440F7E
:1007C000551F661F771F8A95D1F770644483558340
:1007D00066837783EF90DF90CF900895CF93FC01ED
:1007E000DB019081923008F452C08C91823008F481
:1007F0004EC0943071F4843039F411962C9130E06D
:100800008181281B310948C08181882309F43FC0B8
:100810003BC0843029F411968C91811138C034C0CA
:10082000923019F48230B9F735C0823069F3C18152
:1008300011968C911197C8131DC022813381129695
:100840008D919C911397821793070CF413C028176E
:1008500039070CF417C0448155816681778114965D
:100860008D919D910D90BC91A02D84179507A607A1
:10087000B70718F4C11108C00AC0481759076A071A
:100880007B0740F4C11103C02FEF3FEF05C021E00B
:1008900030E002C020E030E0C901CF91089507C0E8
:1008A000EFE9FFE03197F1F700C0000001970097F2
:1008B000B9F7089505C025E02A95F1F700000197E2
:1008C0000097C9F70895CF93CFE1289A8BE490E081
:1008D0000E945A0428988BE490E00E945A04C15068
:1008E000A1F7CF910895BC016350710983E89AE1A3
:1008F0000E94220964507109CB01089548E080E00C
:1009000090E020917A00206420937A0020917A0070
:1009100026FDFCCF2091780030917900820F931F43
:10092000415079F7BC0175956795759567957595F3
:1009300067956350710983E89AE10E942209862F26
:10094000845008951F920F920FB60F9211242F9387
:100950008F939F93EF93FF939091C0008091C60077
:1009600010925B018136D9F09871E0911801EF5F28
:10097000EF7120911701E217B1F0E0931801F0E058
:10098000E55EFE4F808390931601FF91EF919F915A
:100990008F912F910F900FBE0F901F90189521E00F
:1009A00020935B01E1CF92E0EECF1F920F920FB642
:1009B0000F9211248F939F93EF93FF9390911A01BD
:1009C000809119019817A9F0E0911901EF5FEF717B
:1009D000E0931901F0E0E55CFE4F80818093C60052
:1009E000FF91EF919F918F910F900FBE0F901F90ED
:1009F00018958091C1008F7D8093C100F1CF109236
:100A00001A0110921901109218011092170197FF04
:100A100004C022E02093C0009F779093C50080938C
:100A2000C40088E98093C10086E08093C2000895E5
:100A30009091180180911701981791F0E09117019A
:100A4000EF5FEF71E0931701F0E0E55EFE4F80810C
:100A500090911601392F20E0280F311DC90108950A
:100A600020E031E0C901089520911A012F5F2F7114
:100A7000909119012917E1F3E22FF0E0E55CFE4FB8
:100A8000808320931A018091C10080628093C1000D
:100A90000895FC0120812223C9F0DC011196909178
:100AA0001A019F5F9F71809119019817E1F3E92F57
:100AB000F0E0E55CFE4F208390931A018091C10025
:100AC00080628093C1002D912111E9CF08959C018E
:100AD0002F5F3F4FFC0184918823D1F040911A0190
:100AE0004F5F4F71909119014917E1F3A42FB0E0C6
:100AF000A55CBE4F8C9340931A018091C100806227
:100B00008093C100F9012F5F3F4F84918111E6CF9F
:100B100008958A30B9F020911A012F5F2F719091BA
:100B200019012917E1F3E22FF0E0E55CFE4F808325
:100B300020931A018091C10080628093C10080E0FF
:100B400090E0089520911A012F5F2F719091190163
:100B50002917E1F3E22FF0E0E55CFE4F9DE0908382
:100B600020931A019091C10090629093C100D3CF5D
:100B7000809118012091170190E04F96821B9109F6
:100B80006FE170E00E94220908958091170180931F
:100B90001801089580EC97E2A9E0B0E0319907C010
:100BA0000197A109B109D1F72FEF3FEF3BC0109298
:100BB0008000809180008F778093800080918000FA
:100BC0008F7B80938000809180008F7D8093800058
:100BD000809180008F7E8093800082E080938100EE
:100BE000109285001092840080EC97E2A9E0B0E0BA
:100BF000319B0CC0209184003091850021363A4E03
:100C000028F40197A109B10999F7CECF209184006A
:100C1000309185001092810021368AEE380720F04D
:100C20002EEF3FEFC901089536952795C901089524
:100C3000CF93DF93EC013A9A429882E090E00E94D1
:100C40005A04429A8AE090E00E945A0442983998E5
:100C50000E94CA058F3F2FEF9207F9F08E3F2FEFCA
:100C60009207D9F09C01AFE9B6E40E9416099C01F5
:100C7000329522952F7023273F702327922F3327F9
:100C800039832883892F8150873C38F481E09A305A
:100C900028F080E0DF91CF91089582E0DF91CF913D
:100CA00008951F93CF93DF93EC0116E0AE0168EC3B
:100CB00070E085E090E00E94AC061150B9F7DF913A
:100CC000CF911F910895EF92FF920F931F93CF93AF
:100CD000DF93181619063CF52C9A8C0197FD27C056
:100CE00088EE93E00E94220986E4869F9001879F08
:100CF000300D11240115110579F07901C0E0D0E023
:100D00002D9AC7010E945A042D98C7010E945A04C7
:100D10002196C017D107A1F7DF91CF911F910F91B5
:100D2000FF90EF9008952C988C0197FFD9CF1195E3
:100D300001951109D5CFCF93CBE01B990AC068EC80
:100D400070E08BEF9FEF0E946306C150B1F7CF9127
:100D50000895CF910C946304BF92CF92DF92EF92EB
:100D6000FF920F931F93CF93DF936A011816190612
:100D7000C4F52C9A7C0197FD38C088EE93E00E9460
:100D8000220986E4869FE001879FD00D1124E1149B
:100D9000F10479F100E010E00DC02D9ACE010E941F
:100DA0005A042D98CE010E945A040F5F1F4F0E1552
:100DB0001F05A1F0C6010E941806B82E81E0B812E6
:100DC000ECCF21E030E0C901DF91CF911F910F916D
:100DD000FF90EF90DF90CF90BF9008952B2D30E0E3
:100DE000F2CF2C987C0197FFC8CFF194E194F108E1
:100DF000C4CF20E030E0E7CF8F929F92AF92BF92B6
:100E0000CF92DF92EF92FF926B017C0149015A0170
:100E100020E030E0A9010E94DB0118160CF043C06D
:100E20002C9AC701B6010E94660277FD43C088274D
:100E300077FD8095982F0E940A0224EE38E34EE851
:100E400050E40E9453000E9466027B01A5019401B8
:100E500060E070E080E89FE30E94380120E030E02D
:100E60004CE852E40E9453000E9466021E141F04C4
:100E70008CF45B01C12CD12C2D9AC5010E945A041F
:100E80002D98C5010E945A048FEFC81AD80ACE14B3
:100E9000DF0491F7FF90EF90DF90CF90BF90AF907D
:100EA0009F908F9008952C98C701B6010E9466020A
:100EB00077FFBDCF719561957109B9CF64E670E098
:100EC00089E190E00E94630682E390E00E944F0473
:100ED00064E670E087EE9FEF0E94630682E390E095
:100EE0000C944F049BB190699BB9813069F08EEBF3
:100EF00087BD88BD2FEF81EE94E021508040904067
:100F0000E1F700C00000089585EA87BD88BDF2CFF3
:100F10009BB19F769BB9813069F08EEB87BD88BD10
:100F20002FEF81EE94E0215080409040E1F700C027
:100F30000000089585EA87BD88BDF2CF9BB1906916
:100F40009BB917BC813061F08EEB88BD2FEF81EE2D
:100F500094E0215080409040E1F700C000000895E7
:100F600085EA88BDF3CF9BB190699BB9813069F068
:100F70008EEB87BD18BC2FEF81EE94E021508040AE
:100F80009040E1F700C00000089585EA87BDF2CFE8
:100F900017BC18BC08955F9A5C9885EA87BD88BD28
:100FA0002FEF81EE94E0215080409040E1F700C0A7
:100FB0000000089587E690E00E94FF0480E091E041
:100FC00090935F0180935E0108952398089584B102
:100FD000806384B908958AB1806F8AB985B5877FA7
:100FE00085BD84B58D7F84BD84B5816084BD84B5A5
:100FF000806884BD84B58F7B84BD84B5806284BDE8
:1010000084B58F7E84BD85B58B7F85BD85B58D7F8D
:1010100085BD85B5816085BD17BC18BC089538981D
:1010200080917C008F7780937C0080917C008F7B07
:1010300080937C0080917A00846080937A00809114
:101040007A00826080937A0080917A008160809338
:101050007A0080917A00806880937A0080917C0089
:10106000877F80937C0080917C008B7F80937C00C5
:1010700080917C008D7F80937C0080917C008E7FAE
:1010800080937C0080917E00816080937E008091BF
:101090007A00806480937A0080917A0086FDFCCF8C
:1010A0000895209A08950E94DA07209A0E94EB077B
:1010B0000E940F08209A78940EEB15EA17BC18BC12
:1010C0000E94B805892BE1F30E941805EC010E94EB
:1010D0007E048A31B8F5982F9B509E3008F461C089
:1010E0008B3080F5C43609F46AC017BC18BC0E9466
:1010F000630480915B01882309F30E947E04982F8A
:1011000099519A30D8F0833208F468C08BB1806965
:101110008BB907BD08BD2FEF81EE94E021508040D0
:101120009040E1F700C0000080915B01813031F612
:101130000E947E04982F99519A3028F78BB18069CC
:101140008BB95CC020E0CE0199278C36910579F1EE
:101150008D36910534F484369105D9F017BC18BC4E
:10116000C8CF8237910509F455C085379105B1F78D
:101170008BB180698BB9213089F007BD08BD2FEF95
:1011800081EE94E0215080409040E1F700C00000E3
:10119000B0CF8BB18F768BB9213079F717BD18BDE1
:1011A000EECF21E0CE0199278C36910589F68BB1DF
:1011B00080698BB92130B9F107BD18BCE0CF8BB184
:1011C0008F768BB917BD18BD2FEF81EE94E02150BB
:1011D00080409040E1F700C000008BCF8BB18F764C
:1011E0008BB907BD08BD2FEF81EE94E02150804000
:1011F0009040E1F700C000005F9A5C9817BD18BDF1
:101200002FEF81EE94E0215080409040E1F700C044
:1012100000008ACF8BB180698BB917BC213009F0EF
:10122000ADCF18BDACCF17BD18BCA9CFA29FB001E0
:10123000B39FC001A39F01D0B29F700D811D1124E7
:10124000911D089597FB072E16F4009407D077FDA3
:1012500009D00E94360907FC05D03EF4909581958F
:101260009F4F0895709561957F4F0895AA1BBB1BF2
:1012700051E107C0AA1FBB1FA617B70710F0A61B96
:10128000B70B881F991F5A95A9F780959095BC01B7
:10129000CD0108952F923F924F925F926F927F926D
:1012A0008F929F92AF92BF92CF92DF92EF92FF9276
:1012B0000F931F93CF93DF93CDB7DEB7CA1BDB0B22
:1012C0000FB6F894DEBF0FBECDBF09942A883988C7
:1012D00048885F846E847D848C849B84AA84B984CE
:1012E000C884DF80EE80FD800C811B81AA81B981DA
:1012F000CE0FD11D0FB6F894DEBF0FBECDBFED01EE
:1013000008950E948A0984FF0895CB010E948A09EA
:10131000805F0895AA27992329F4A85F982B11F4D8
:1013200080E10895903118F4AD5F9295A395990FDF
:0C133000E8F78A2F99270895F894FFCF62
:10133C000000000200000000890500000000000011
:06134C000000000000009B
:00000001FF
