:100000000C9434000C9451000C9451000C94510049
:100010000C9451000C9451000C9451000C9451001C
:100020000C9451000C9451000C9451000C9451000C
:100030000C9451000C9451000C9451000C945100FC
:100040000C9451000C9451000C94E6080C94110986
:100050000C9451000C9451000C9451000C945100DC
:100060000C9451000C94510011241FBECFEFD8E026
:10007000DEBFCDBF11E0A0E0B1E0ECECFDE102C0DD
:1000800005900D92AA31B107D9F711E0AAE1B1E0CC
:1000900001C01D92AF36B107E1F70E94560D0C94D6
:1000A000E40E0C940000A4E0B0E0E9E5F0E00C946C
:1000B000130E7C016A01FC018081823008F44AC180
:1000C000FB019081923008F442C1843079F494307D
:1000D00009F040C1F7019181FB018181981709F472
:1000E00039C1AEE0EA2EA1E0FA2E34C1943009F411
:1000F0002EC1923091F4823009F02CC188E0F701D2
:10010000DA0101900D928A95E1F7FB018181F701F7
:1001100091818923FA0181831CC1823009F417C1BE
:10012000F70182819381FB01A281B381F7010481F0
:10013000158126813781FB0184809580A680B78058
:10014000FC01EA1BFB0BAF01F7FF04C04427552756
:100150004E1B5F0B403251050CF074C01E161F067B
:10016000B4F524013501042E04C0769467945794A5
:1001700047940A94D2F749825A826B827C82412C3E
:10018000512C3201439404C0440C551C661C771C4E
:100190004A95D2F741E0441A510861087108482095
:1001A00059206A207B20812C912C5401839445286E
:1001B0004628472819F4812C912C540149805A80F3
:1001C0006B807C8084289528A628B72846C0EF2B12
:1001D00009F443C0840F951F28013901042E04C07F
:1001E00076946794579447940A94D2F749825A8236
:1001F0006B827C82412C512C3201439404C0440C0C
:10020000551C661C771C4A95D2F741E0441A5108E8
:1002100061087108402251226222732201E010E03D
:1002200020E030E045284628472819F400E010E097
:10023000980149805A806B807C80042915292629E1
:1002400037290BC0A817B90724F4812C912C54012D
:1002500004C0CD0100E010E09801F7014181FB01ED
:100260005181451709F446C0442349F02401350162
:10027000401A510A620A730A9301820104C00819E4
:1002800019092A093B0937FD05C0F601118293833C
:1002900082830CC041E0F6014183938382833095D1
:1002A0002095109501951F4F2F4F3F4F04831583C5
:1002B000268337830EC0880F991FAA1FBB1FF60124
:1002C00084839583A683B7838281938101979383E7
:1002D0008283F60184819581A681B781AC01BD013D
:1002E00041505109610971094F3F5F4F6F4F7F4383
:1002F00010F30CC0F601418393838283080D191D0E
:100300002A1D3B1D048315832683378383E0F60172
:100310008083448155816681778177FF1AC0DB0134
:10032000CA0181709927AA27BB27769567955795AB
:100330004795842B952BA62BB72B84839583A68377
:10034000B7838281938101969383828302C07B016C
:1003500001C07601C7012496E0E10C942F0EA0E2C3
:10036000B0E0E5EBF1E00C94210E6D8F7E8F8F8F66
:1003700098A3298F3A8F4B8F5C8FBE016F5E7F4FA2
:10038000CE014D960E94DC05BE01675F7F4FCE0116
:1003900049960E94DC05AE014F5F5F4FBE01675F6B
:1003A0007F4FCE0141960E9453000E941205A096F5
:1003B000E2E00C943D0EA0E2B0E0E1EEF1E00C943E
:1003C000210E6D8F7E8F8F8F98A3298F3A8F4B8F41
:1003D0005C8FBE016F5E7F4FCE014D960E94DC05A3
:1003E000BE01675F7F4FCE0149960E94DC058A857A
:1003F00091E089278A87AE014F5F5F4FBE01675F3B
:100400007F4FCE0141960E9453000E941205A09694
:10041000E2E00C943D0EA0E2B0E0E1E1F2E00C94E9
:10042000130E6D8F7E8F8F8F98A3298F3A8F4B8FEE
:100430005C8FBE016F5E7F4FCE014D960E94DC0542
:10044000BE01675F7F4FCE0149960E94DC05998906
:10045000923008F412C08985823008F41AC09430B2
:1004600021F4823009F4B4C008C0843021F4923001
:1004700009F4AEC00EC0923051F481E02A899A8509
:10048000291301C080E08A8BCE014196A3C082303F
:1004900051F481E02A899A85291301C080E08A8776
:1004A000CE01099697C08D889E88AF88B88C0D853F
:1004B0001E852F853889E0E2F0E080E090E0DC01E5
:1004C000C12CD12C760140E050E0BA0180FE18C06A
:1004D000400F511F621F731F8C0D9D1DAE1DBF1D50
:1004E000412C512C32014394401751076207730786
:1004F00018F0412C512C3201840D951DA61DB71DFD
:10050000CC0CDD1CEE1CFF1C37FF02C06894C0F849
:10051000000F111F221F331FB694A794979487943E
:100520003197A1F62B893C89EB85FC852E0F3F1F67
:100530002E5F3F4F3C832B8321E0EA893A85E3130A
:1005400001C020E02A83EB81FC810CC080FF05C044
:1005500076956795579547957068B695A795979541
:1005600087953196B7FDF2CF9F010CC0880F991F78
:10057000AA1FBB1F77FD8160440F551F661F771FA1
:10058000215031090097A105E0E4BE0778F32B83E1
:100590003C838C019D010F771127222733270034DC
:1005A00011052105310559F487FD09C0452B462B5E
:1005B000472B29F0805C9F4FAF4FBF4F80788D83D2
:1005C0009E83AF83B88783E08983CE01019602C002
:1005D0008EE091E00E941205A096E0E10C942F0EAF
:1005E000A8E1B0E0E6EFF2E00C941B0E6D8B7E8B81
:1005F0008F8B988F298B3A8B4B8B5C8BBE01675FFF
:100600007F4FCE0145960E94DC05BE016F5F7F4F94
:10061000CE0141960E94DC059985923008F475C0A0
:100620008981823008F474C02A853A8123272A8779
:10063000943011F0923019F4981367C06CC0843074
:1006400039F41D861E861F86188A1C861B8604C0E8
:10065000823029F484E08987CE0109965EC08B85BB
:100660009C852B813C81821B930B9C878B874D85BE
:100670005E856F857889CD80DE80EF80F8844C15AB
:100680005D056E057F0538F4440F551F661F771F03
:1006900001979C878B87EFE1F0E000E010E020E01D
:1006A00030E480E090E0DC014C155D056E057F05CF
:1006B00040F0802B912BA22BB32B4C195D096E09B6
:1006C0007F093695279517950795440F551F661F87
:1006D000771F319749F78C019D010F77112722274A
:1006E0003327003411052105310559F487FD09C070
:1006F000452B462B472B29F0805C9F4FAF4FBF4FB8
:1007000080788D879E87AF87B88BCE01099605C00C
:10071000CE01019602C08EE091E00E94120568961B
:10072000E8E00C94370EA8E1B0E0E9E9F3E00C94BE
:10073000210E6D8B7E8B8F8B988F298B3A8B4B8BF9
:100740005C8BBE01675F7F4FCE0145960E94DC0542
:10075000BE016F5F7F4FCE0141960E94DC05898507
:10076000823058F08981823040F0BE016F5F7F4F48
:10077000CE0109960E944B0601C08FEF6896E2E019
:100780000C943D0EA8E1B0E0E8ECF3E00C94210EEF
:100790006D8B7E8B8F8B988F298B3A8B4B8B5C8BE1
:1007A000BE01675F7F4FCE0145960E94DC05BE010A
:1007B0006F5F7F4FCE0141960E94DC0589858230B4
:1007C00058F08981823040F0BE016F5F7F4FCE01CB
:1007D00009960E944B0601C08FEF6896E2E00C94E8
:1007E0003D0EA8E0B0E0E7EFF3E00C941F0E23E02D
:1007F00029838B019C01002737FD039511272227B0
:100800003327402F0A83611571058105910519F47D
:1008100082E0898335C02EE130E03C832B83442382
:1008200071F061157105810520E8920771F10027CB
:1008300011279801061B170B280B390B02C08B01DF
:100840009C01C901B8010E94480E019718161906AB
:100850002CF00D831E832F83388712C0082E04C00E
:10086000000F111F221F331F0A94D2F70D831E831E
:100870002F8338872EE130E0281B390B3C832B83F4
:10088000CE0101960E94120504C060E070E080E095
:100890009FEC2896E4E00C943B0EACE0B0E0E3E57E
:1008A000F4E00C941F0E69877A878B879C87BE01C2
:1008B0006F5F7F4FCE0109960E94DC0589818230EF
:1008C00091F1823080F1843041F48A81882331F1C2
:1008D00000E010E020E030E829C02B813C8137FDAA
:1008E00022C02F3131058CF78EE190E0821B930BF3
:1008F0000D811E812F81388504C036952795179567
:1009000007958A95D2F78A81882381F030952095C2
:10091000109501951F4F2F4F3F4F08C00FEF1FEF4E
:100920002FEF3FE703C000E010E09801B801C901D4
:100930002C96E4E00C943B0EA8E0B0E0E2EAF4E090
:100940000C941B0E8B019C011A82611571058105A7
:10095000910519F482E089835DC083E089834EE1CB
:1009600050E05C834B83C901B8010E94480E019797
:1009700097FF39C0EE27FF27E81BF90B41E050E055
:1009800060E070E00E2E04C0440F551F661F771FF5
:100990000A94D2F74150510961097109402351234A
:1009A00062237323C12CD12C7601C394452B462B93
:1009B000472B19F4C12CD12C760104C0369527950C
:1009C00017950795EA95D2F70C291D292E293F295D
:1009D0000D831E832F8338872EE130E0281B390BCF
:1009E0003C832B8317C0009729F40D831E832F832C
:1009F000388710C0082E04C0000F111F221F331F9C
:100A00000A94D2F70D831E832F833887481B590B16
:100A10005C834B83CE0101960E9412052896E8E084
:100A20000C94370E0F931F93CF93DF93DC01149632
:100A30004D915D916D917C9117971196EC91119765
:100A40008C91823020F460618FEF90E0A6C08430FA
:100A500009F49EC0823009F495C041155105610525
:100A6000710509F492C012962D913C91139722388A
:100A70008FEF38070CF058C0C2E8DFEFC21BD30B72
:100A8000CA31D1056CF58A019B010C2E04C0369544
:100A90002795179507950A94D2F781E090E0A0E09A
:100AA000B0E00C2E04C0880F991FAA1FBB1F0A9428
:100AB000D2F70197A109B10984239523A623B7236F
:100AC00041E050E060E070E0892B8A2B8B2B19F419
:100AD00040E050E0BA01402B512B622B732B03C036
:100AE00040E050E0BA01DB01CA018F779927AA27BD
:100AF000BB2780349105A105B10539F447FF09C032
:100B0000405C5F4F6F4F7F4F04C0415C5F4F6F4F42
:100B10007F4F81E090E041155105610520E47207A7
:100B200048F580E090E026C0203831058CF5DB01E7
:100B3000CA018F779927AA27BB2780349105A10581
:100B4000B10539F447FF09C0405C5F4F6F4F7F4FDD
:100B500004C0415C5F4F6F4F7F4F77FD04C0C901F8
:100B600081589F4F07C07695679557954795C9015E
:100B700080589F4F97E076956795579547959A953A
:100B8000D1F70BC080E090E005C080E090E005C0A8
:100B90008FEF90E040E050E0BA01982F9695E0FB8F
:100BA00097F9362F80FB37F9642F752F832FDF914C
:100BB000CF911F910F910895CF92DF92EF92DC01B8
:100BC000FB01CC901196DC90119712968C911297A4
:100BD0003FE7E32EE8226E2DA60170E0982F991FC3
:100BE0009927991F13962C91822F880F892B90E0BB
:100BF00027FB222720F92183009729F5411551056C
:100C00006105710511F482E027C082E89FEF9383AC
:100C1000828327E0440F551F661F771F2A95D1F75F
:100C200083E0808309C0440F551F661F771F8281B0
:100C3000938101979383828341155105610580E477
:100C4000780788F320C08F3F910579F4411551054D
:100C50006105710519F484E0808319C0E4FE03C0C6
:100C600081E0808310C010820EC08F57910993835A
:100C7000828383E0808387E0440F551F661F771FC0
:100C80008A95D1F770644483558366837783EF90A8
:100C9000DF90CF900895CF93FC01DB0190819230DB
:100CA00008F452C08C91823008F44EC0943071F434
:100CB000843039F411962C9130E08181281B310960
:100CC00048C08181882309F43FC03BC0843029F4A7
:100CD00011968C91811138C034C0923019F4823051
:100CE000B9F735C0823069F3C18111968C911197A3
:100CF000C8131DC02281338112968D919C91139748
:100D0000821793070CF413C0281739070CF417C087
:100D1000448155816681778114968D919D910D90C6
:100D2000BC91A02D84179507A607B70718F4C11129
:100D300008C00AC0481759076A077B0740F4C11169
:100D400003C02FEF3FEF05C021E030E002C020E0FC
:100D500030E0C901CF9108954F925F926F927F92D8
:100D60008F929F92AF92BF92CF92DF92EF92FF92BB
:100D70000F931F93CF93DF935C01EA0189018827CA
:100D800077FD8095982F0E94F1032B013C01B5015E
:100D9000882777FD8095982F0E94F1036B017C01D5
:100DA000A3019201C301B2010E940B022B013C017D
:100DB000A7019601C701B6010E940B029B01AC017D
:100DC000C301B2010E94AF012B013C01752D972D8B
:100DD0000E946C0E6B017C0188EC8A9DB0018B9D9A
:100DE000700D1124882777FD8095982F0E94F103BC
:100DF0004B015C019B01AC01642D752D862D972D57
:100E00000E94DB0120E030E44CE156E40E94AF0197
:100E10000E946C0EF8016083718382839383A50125
:100E20009401642D752D862D972D0E94AF0120E031
:100E300030E44CE156E40E94AF010E946C0E6883DE
:100E400079838A839B83F801208131814281538198
:100E5000C701B6010E940B020E944D04882777FD4E
:100E60008095982F0E94F10320E030E04CE952E495
:100E70000E94F002F801608371838283938328814A
:100E800039814A815B81C701B6010E940B020E9431
:100E90004D04882777FD8095982F0E94F10320E06C
:100EA00030E04CE952E40E94F0026B017C01982F83
:100EB0004C2D5D2D692F7F2D488359836A837B8359
:100EC00020E030E04FE753E4F801608171818281D6
:100ED00093810E94C20387FD0DC080E090E0AFE7E0
:100EE000B3E4F80180839183A283B383C880D9805F
:100EF000EA80FB8020E030E04FE753E46C2D7D2D4D
:100F00008E2D9F2D0E94C20387FD08C080E090E0D7
:100F1000AFE7B3E488839983AA83BB83DF91CF9142
:100F20001F910F91FF90EF90DF90CF90BF90AF9007
:100F30009F908F907F906F905F904F9008952F9229
:100F40003F924F925F926F927F928F929F92AF9259
:100F5000BF92CF92DF92EF92FF920F931F93CF93A6
:100F6000DF935C01EB01882777FD8095982F0E9425
:100F7000F1036B017C01B501882777FD8095982FDF
:100F80000E94F1039B01AC010E940B022B013C016A
:100F9000A7019601C701B6010E940B029B01AC019B
:100FA000C301B2010E94AF01762E072F182F692EC0
:100FB000812F0E946C0E6B017C0188EC8A9DB00130
:100FC0008B9D700D1124882777FD8095982F0E94A6
:100FD000F1034B015C019B01AC01672D702F812F48
:100FE000962D0E94DB0120E030E44CE156E40E94A3
:100FF000AF010E946C0E1B012C01A5019401672D0D
:10100000702F812F962D0E94AF0120E030E44CE13B
:1010100056E40E94AF010E946C0E4B015C01A201DC
:101020009101C701B6010E940B020E944D0488275E
:1010300077FD8095982F0E94F10320E030E04CE985
:1010400052E40E94F0023B018C01A5019401C7010A
:10105000B6010E940B020E944D04882777FD8095FF
:10106000982F0E94F10320E030E04CE952E40E9406
:10107000F0026B017C0120E030E04FE753E4662D85
:10108000772D802F912F0E94C20387FF2FC0662DDE
:10109000772D802F912F0E944D04162F20E030E0F5
:1010A0004FE753E46C2D7D2D8E2D9F2D0E94C203A2
:1010B00087FD1EC06FEF17BD68BD8BB11C161D06E6
:1010C0001CF580698BB9DF91CF911F910F91FF9033
:1010D000EF90DF90CF90BF90AF909F908F907F90D8
:1010E0006F905F904F903F902F9008951FEFD6CF55
:1010F0006C2D7D2D8E2D9F2D0E944D0417BD68BD3A
:101100008BB11C161D06ECF28F768BB9DCCF17BCA9
:1011100018BC089507C0EFE9FFE03197F1F700C070
:10112000000001970097B9F7089505C025E02A95BA
:10113000F1F7000001970097C9F70895CF93DF9367
:10114000CFE1D0E0289A8BE490E00E94950828989F
:101150008BE490E00E9495082197A1F7DF91CF9151
:101160000895BC016350710983E89AE10E94AB0DB8
:1011700064507109CB0108950F931F93CF93DF93B0
:10118000C5E0D0E000E010E080917A0080648093B8
:101190007A0080917A0086FDFCCF80917800909152
:1011A0007900080F191F89E190E00E9495082197A6
:1011B00059F721E030E0093C194014F420E030E018
:1011C000C901DF91CF911F910F9108951F920F9246
:1011D0000FB60F9211242F938F939F93EF93FF934A
:1011E0008091C0002091C6008871E0911C01EF5FE2
:1011F000EF7190911B01E91791F0E0931C01F0E071
:10120000E15EFE4F208380931A01FF91EF919F9141
:101210008F912F910F900FBE0F901F90189582E025
:10122000F2CF1F920F920FB60F9211248F939F93BC
:10123000EF93FF9390911E0180911D019817A9F0E3
:10124000E0911D01EF5FEF71E0931D01F0E0E15CC3
:10125000FE4F80818093C600FF91EF919F918F9107
:101260000F900FBE0F901F9018958091C1008F7D39
:101270008093C100F1CF10921E0110921D011092B7
:101280001C0110921B0197FF04C022E02093C000B4
:101290009F779093C5008093C40088E98093C10034
:1012A00086E08093C200089590911C0180911B01FB
:1012B000981791F0E0911B01EF5FEF71E0931B0134
:1012C000F0E0E15EFE4F808190911A01392F20E01D
:1012D000280F311DC901089520E031E0C9010895AA
:1012E00020911E012F5F2F7190911D012917E1F3AD
:1012F000E22FF0E0E15CFE4F808320931E0180919D
:10130000C10080628093C1000895FC0120812223E6
:10131000C9F0DC01119690911E019F5F9F71809131
:101320001D019817E1F3E92FF0E0E15CFE4F208307
:1013300090931E018091C10080628093C1002D9125
:101340002111E9CF08959C012F5F3F4FFC0184914B
:101350008823D1F040911E014F5F4F7190911D0184
:101360004917E1F3A42FB0E0A15CBE4F8C934093EA
:101370001E018091C10080628093C100F9012F5F3E
:101380003F4F84918111E6CF08958A30B9F02091C2
:101390001E012F5F2F7190911D012917E1F3E22F9C
:1013A000F0E0E15CFE4F808320931E018091C1003C
:1013B00080628093C10080E090E0089520911E013A
:1013C0002F5F2F7190911D012917E1F3E22FF0E0BB
:1013D000E15CFE4F9DE0908320931E019091C1003F
:1013E00090629093C100D3CF80911C0120911B018A
:1013F00090E04F96821B91096FE170E00E94AB0D67
:10140000089580911B0180931C01089524E930E028
:1014100040E050E00E94BF0DB901CA0108952AE3DF
:1014200030E040E050E00E94BF0DB901CA010895CC
:10143000319BFECF10928000809180008F77809347
:101440008000809180008F7B80938000809180005D
:101450008F7D80938000809180008F7E80938000BC
:1014600082E0809381001092850010928400319B6D
:1014700007C0809184009091850081369A4EB8F320
:1014800020918400309185001092810021368AEEEF
:10149000380720F02EEF3FEFC901089536952795C4
:1014A000C90108953A9A429882E090E00E94950816
:1014B000429A8AE090E00E94950842983998319BC0
:1014C000FECF10928000809180008F778093800003
:1014D000809180008F7B80938000809180008F7D41
:1014E00080938000809180008F7E8093800082E0D6
:1014F000809381001092850010928400319B07C078
:10150000809184009091850081369A4EB8F3609165
:101510008400709185001092810061368AEE780710
:1015200020F022E030E0C90108957695679580E0CB
:1015300090E00E949C0420E030E048E652E40E94E3
:10154000F0020E944D04CB010197873C910548F7BA
:1015500021E030E06A30710534F320E030E0C90169
:1015600008954AE057ED63EA7CE385E090E00E944D
:10157000610B4AE057ED63EA7CE385E090E00E946E
:10158000610B4AE057ED63EA7CE385E090E00E945E
:10159000610B4AE057ED63EA7CE385E090E00E944E
:1015A000610B4AE057ED63EA7CE385E090E00E943E
:1015B000610B4AE057ED63EA7CE385E090E00C9430
:1015C000610BCF93DF93CBE0D0E01B9938C02C9810
:1015D0002D9A8CEA9DE00E9495082D988CEA9DE05A
:1015E0000E9495082D9A8CEA9DE00E9495082D98FE
:1015F0008CEA9DE00E9495082D9A8CEA9DE00E945D
:1016000095082D988CEA9DE00E9495082D9A8CEA09
:101610009DE00E9495082D988CEA9DE00E94950817
:101620002D9A8CEA9DE00E9495082D988CEA9DE009
:101630000E949508219749F6DF91CF910895DF9197
:10164000CF910C949E08EF92FF920F931F93CF932C
:10165000DF93181619066CF52C9AEC0197FD2DC036
:101660009A01AB0160E070E080E89FE30E94F00225
:1016700020E030E04CE852E40E940B020E944D044E
:10168000209781F07B0100E010E02D9AC7010E94B5
:1016900095082D98C7010E9495080F5F1F4F0C17E2
:1016A0001D0799F7DF91CF911F910F91FF90EF9058
:1016B00008952C98EC0197FFD3CFD195C195D1090E
:1016C000CFCFCF92DF92EF92FF920F931F93CF93E2
:1016D000DF9318161906DCF52C9AEC0197FD3BC038
:1016E0009A01AB0160E070E080E89FE30E94F002A5
:1016F00020E030E04CE852E40E940B020E944D04CE
:10170000D62EC72E209759F1E12CF12C10C02D9A1E
:101710008D2D9C2D0E9495082D988D2D9C2D0E941D
:1017200095088FEFE81AF80AEC16FD0631F00E94D2
:10173000520A8C018130910551F7C801DF91CF9198
:101740001F910F91FF90EF90DF90CF9008952C980C
:10175000EC0197FFC5CFD195C195D109C1CF00E06C
:1017600010E0EBCF8F929F92AF92BF92CF92DF9219
:10177000EF92FF926B017C0149015A0120E030E0B9
:10178000A9010E94930318160CF043C02C9AC701BC
:10179000B6010E944D0477FD43C0882777FD8095F0
:1017A000982F0E94F10324EE38E34EE850E40E94A3
:1017B0000B020E944D047B01A501940160E070E0E2
:1017C00080E89FE30E94F00220E030E04CE852E421
:1017D0000E940B020E944D041E141F048CF45B0136
:1017E000C12CD12C2D9AC5010E9495082D98C501B8
:1017F0000E9495088FEFC81AD80ACE14DF0491F71B
:10180000FF90EF90DF90CF90BF90AF909F908F9020
:1018100008952C98C701B6010E944D0477FFBDCFF3
:10182000719561957109B9CFCF93DF932C9AC9E176
:10183000D0E02D9A88E59BE10E9495082D9888E5D7
:101840009BE10E9495082197A1F782E390E00E9416
:101850008A082C98C9E1D0E02D9A88E59BE10E9486
:1018600095082D9888E59BE10E9495082197A1F79E
:1018700082E390E0DF91CF910C948A08EF92FF927F
:101880000F931F9301151105F1F0E114F104D9F044
:1018900070E090E8899F600D711D112430E0E0E850
:1018A0004E9F200D311D1124685C7109F801718370
:1018B0006083285C3109F701318320831F910F91E8
:1018C000FF90EF9008950E94630E0F931F93CF93A4
:1018D000DF938C01EB010E94F409892BE1F30E9454
:1018E0005409823041F00E94F409892BE1F30E94EF
:1018F00054098230C1F70E94F409892BE1F30E9458
:101900005409809361010E94F409892BE1F30E943C
:101910005409809362010E94F409892BE1F30E942B
:101920005409809367010E94F409892BE1F30E9416
:101930005409809368010E94F409892BE1F30E9405
:101940005409209168018091670140916201909152
:10195000610101151105E1F02097D1F050E030E868
:10196000939F400D511D112430E090E8899F200D78
:10197000311D1124485C5109F80151834083285CD2
:10198000310939832883DF91CF911F910F910895F9
:101990000E94630E0F931F93CF93DF93EC018B0193
:1019A0000E94BC08998388830E94B10AF801918340
:1019B0008083DF91CF911F910F910C94E10A87E60C
:1019C00090E00E943B0980E091E090936C0180934D
:1019D0006B0108952398089584B1806384B90895B4
:1019E0008AB1806F8AB985B5877F85BD84B58D7FC3
:1019F00084BD84B5816084BD84B5806884BD84B5B0
:101A00008F7B84BD84B5806284BD84B58F7E84BDA8
:101A100085B58B7F85BD85B58D7F85BD85B581609D
:101A200085BD0895389880917C008F7780937C00E5
:101A300080917C008F7B80937C0080917A00846011
:101A400080937A0080917A008D7F80937A008091D4
:101A50007A008E7F80937A0080917A0080688093EC
:101A60007A0080917C00877F80937C0080917C004D
:101A70008B7F80937C0080917C008D7F80937C00A5
:101A800080917C008E7F80937C0080917E008160BD
:101A900080937E0080917A00806480937A008091A8
:101AA0007A0086FDFCCF0895209A0895CF93DF93A6
:101AB00000D000D000D0CDB7DEB71C821B821A82C6
:101AC00019820E94DF0C209A0E94F00C0E94120DD5
:101AD000209A239884B1806384B90E94E10A7894A3
:101AE0000DC08B819C810E949F072FEF84E39CE0B7
:101AF000215080409040E1F700C000000E94F409AE
:101B00001816190694F7BE016F5F7F4FCE0103963A
:101B10000E94650C69817A816233710514F30E9419
:101B2000BC088C010E94B10A8D839E830E94E10A49
:101B30008D819E81012B29F00E9487080E949E08BA
:101B4000D4CF9C012115310519F022303105A1F7C0
:101B500069817A81C6CF97FB072E16F4009407D0CF
:101B600077FD09D00E94DB0D07FC05D03EF490956F
:101B700081959F4F0895709561957F4F0895052E2B
:101B800097FB16F4009407D057FD0DD00E94EF0D7F
:101B900007FC09D07EF490958095709561957F4FF4
:101BA0008F4F9F4F089550954095309521953F4F09
:101BB0004F4F5F4F0895AA1BBB1B51E107C0AA1FDF
:101BC000BB1FA617B70710F0A61BB70B881F991FDE
:101BD0005A95A9F780959095BC01CD010895A1E291
:101BE0001A2EAA1BBB1BFD010DC0AA1FBB1FEE1F97
:101BF000FF1FA217B307E407F50720F0A21BB30BE2
:101C0000E40BF50B661F771F881F991F1A9469F75D
:101C100060957095809590959B01AC01BD01CF01B9
:101C200008952F923F924F925F926F927F928F9280
:101C30009F92AF92BF92CF92DF92EF92FF920F935B
:101C40001F93CF93DF93CDB7DEB7CA1BDB0B0FB665
:101C5000F894DEBF0FBECDBF09942A883988488822
:101C60005F846E847D848C849B84AA84B984C884B8
:101C7000DF80EE80FD800C811B81AA81B981CE0FAF
:101C8000D11D0FB6F894DEBF0FBECDBFED01089594
:101C90000E94510E84FF0895CB010E94510E805F77
:101CA0000895AA27992329F4A85F982B11F480E1BD
:101CB0000895903118F4AD5F9295A395990FE8F7C8
:101CC0008A2F9927089581E090E0F8940C94E40E0F
:101CD00011F40EF44DC03EC05DD0D0F39923D9F37A
:101CE000CEF39F57550B87FF46D00024A0E640EA6D
:101CF000900180585695979528F4805C660F771F61
:101D0000881F20F026173707480730F4621B730B33
:101D1000840B202931294A2BA69517940794202556
:101D200031254A2758F7660F771F881F20F026179E
:101D30003707480730F4620B730B840B200D311DFD
:101D4000411DA09581F7B901842F9158880F969570
:101D5000879508959F3F31F0915020F487957795AE
:101D60006795B795880F911D9695879597F9089572
:101D70009FEF80EC089591505040660F771F881FA9
:101D8000D2F7089557FD9058440F551F59F05F3F03
:101D900071F04795880F97FB991F61F09F3F79F08D
:101DA00087950895121613061406551FF2CF46950F
:101DB000F1DF08C0161617061806991FF1CF869591
:0C1DC0007105610508940895F894FFCFA8
:101DCC000000000200000000C50900000000000037
:0A1DDC00000000000000E803000012
:00000001FF
