:100000000C9434000C9451000C9451000C94510049
:100010000C9451000C9451000C9451000C9451001C
:100020000C9451000C9451000C9451000C9451000C
:100030000C9451000C9451000C9451000C945100FC
:100040000C9451000C9451000C9461080C948C0891
:100050000C9451000C9451000C9451000C945100DC
:100060000C9451000C94510011241FBECFEFD8E026
:10007000DEBFCDBF11E0A0E0B1E0EEECFAE102C0DE
:1000800005900D92A631B107D9F711E0A6E1B1E0D4
:1000900001C01D92A536B107E1F70E94260C0C9411
:1000A000650D0C940000CF92DF92EF92FF920F93B8
:1000B0001F936B017C0120E030E040E05FE40E9490
:1000C000EF0387FD0EC020E030E040E05FE4C701B1
:1000D000B6010E9408020E947A048B019C013058EC
:1000E00006C0C701B6010E947A048B019C01B801C9
:1000F000C9011F910F91FF90EF90DF90CF9008956D
:10010000A4E0B0E0E6E8F0E00C94940C7C016A0115
:10011000FC018081823008F44AC1FB019081923059
:1001200008F442C1843079F4943009F040C1F701F9
:100130009181FB018181981709F439C1AEE0EA2E63
:10014000A1E0FA2E34C1943009F42EC1923091F41A
:10015000823009F02CC188E0F701DA0101900D929C
:100160008A95E1F7FB018181F70191818923FA01E9
:1001700081831CC1823009F417C1F7018281938108
:10018000FB01A281B381F7010481158126813781AA
:10019000FB0184809580A680B780FC01EA1BFB0BE5
:1001A000AF01F7FF04C0442755274E1B5F0B4032B9
:1001B00051050CF074C01E161F06B4F5240135015C
:1001C000042E04C076946794579447940A94D2F707
:1001D00049825A826B827C82412C512C3201439499
:1001E00004C0440C551C661C771C4A95D2F741E0AC
:1001F000441A510861087108482059206A207B2060
:10020000812C912C5401839445284628472819F4C1
:10021000812C912C540149805A806B807C808428E9
:100220009528A628B72846C0EF2B09F443C0840FB1
:10023000951F28013901042E04C0769467945794C1
:1002400047940A94D2F749825A826B827C82412C6D
:10025000512C3201439404C0440C551C661C771C7D
:100260004A95D2F741E0441A5108610871084022CA
:1002700051226222732201E010E020E030E04528A4
:100280004628472819F400E010E0980149805A8078
:100290006B807C8004291529262937290BC0A817D3
:1002A000B90724F4812C912C540104C0CD0100E045
:1002B00010E09801F7014181FB015181451709F4D4
:1002C00046C0442349F024013501401A510A620A0C
:1002D000730A9301820104C0081919092A093B090C
:1002E00037FD05C0F6011182938382830CC041E083
:1002F000F601418393838283309520951095019573
:100300001F4F2F4F3F4F04831583268337830EC023
:10031000880F991FAA1FBB1FF60184839583A683AC
:10032000B78382819381019793838283F6018481CD
:100330009581A681B781AC01BD0141505109610988
:1003400071094F3F5F4F6F4F7F4310F30CC0F601B1
:10035000418393838283080D191D2A1D3B1D04834D
:1003600015832683378383E0F6018083448155819A
:100370006681778177FF1AC0DB01CA0181709927F6
:10038000AA27BB277695679557954795842B952B7C
:10039000A62BB72B84839583A683B7838281938111
:1003A00001969383828302C07B0101C07601C7015D
:1003B0002496E0E10C94B00CA0E2B0E0E2EEF1E0B3
:1003C0000C94A20C6D8F7E8F8F8F98A3298F3A8FFC
:1003D0004B8F5C8FBE016F5E7F4FCE014D960E94AA
:1003E0000906BE01675F7F4FCE0149960E9409064C
:1003F000AE014F5F5F4FBE01675F7F4FCE014196F9
:100400000E9480000E943F05A096E2E00C94BE0C82
:10041000A0E2B0E0EEE0F2E00C94A20C6D8F7E8FD3
:100420008F8F98A3298F3A8F4B8F5C8FBE016F5EA1
:100430007F4FCE014D960E940906BE01675F7F4F38
:10044000CE0149960E9409068A8591E089278A870C
:10045000AE014F5F5F4FBE01675F7F4FCE01419698
:100460000E9480000E943F05A096E2E00C94BE0C22
:10047000A0E2B0E0EEE3F2E00C94940C6D8F7E8F7E
:100480008F8F98A3298F3A8F4B8F5C8FBE016F5E41
:100490007F4FCE014D960E940906BE01675F7F4FD8
:1004A000CE0149960E9409069989923008F412C03B
:1004B0008985823008F41AC0943021F4823009F41E
:1004C000B4C008C0843021F4923009F4AEC00EC02C
:1004D000923051F481E02A899A85291301C080E085
:1004E0008A8BCE014196A3C0823051F481E02A89E3
:1004F0009A85291301C080E08A87CE01099697C0AA
:100500008D889E88AF88B88C0D851E852F8538898B
:10051000E0E2F0E080E090E0DC01C12CD12C76013B
:1005200040E050E0BA0180FE18C0400F511F621F2A
:10053000731F8C0D9D1DAE1DBF1D412C512C320112
:100540004394401751076207730718F0412C512C50
:100550003201840D951DA61DB71DCC0CDD1CEE1CB3
:10056000FF1C37FF02C06894C0F8000F111F221F44
:10057000331FB694A794979487943197A1F62B894B
:100580003C89EB85FC852E0F3F1F2E5F3F4F3C8340
:100590002B8321E0EA893A85E31301C020E02A8316
:1005A000EB81FC810CC080FF05C07695679557955F
:1005B00047957068B695A795979587953196B7FD3D
:1005C000F2CF9F010CC0880F991FAA1FBB1F77FD98
:1005D0008160440F551F661F771F21503109009716
:1005E000A105E0E4BE0778F32B833C838C019D01D9
:1005F0000F771127222733270034110521053105F4
:1006000059F487FD09C0452B462B472B29F0805C08
:100610009F4FAF4FBF4F80788D839E83AF83B88746
:1006200083E08983CE01019602C08EE091E00E94B2
:100630003F05A096E0E10C94B00CA8E1B0E0E3E245
:10064000F3E00C949C0C6D8B7E8B8F8B988F298B99
:100650003A8B4B8B5C8BBE01675F7F4FCE0145961B
:100660000E940906BE016F5F7F4FCE0141960E9436
:1006700009069985923008F475C08981823008F4A2
:1006800074C02A853A8123272A87943011F092304A
:1006900019F4981367C06CC0843039F41D861E8627
:1006A0001F86188A1C861B8604C0823029F484E0C9
:1006B0008987CE0109965EC08B859C852B813C8104
:1006C000821B930B9C878B874D855E856F85788910
:1006D000CD80DE80EF80F8844C155D056E057F05CA
:1006E00038F4440F551F661F771F01979C878B872F
:1006F000EFE1F0E000E010E020E030E480E090E0A6
:10070000DC014C155D056E057F0540F0802B912BBB
:10071000A22BB32B4C195D096E097F0936952795DD
:1007200017950795440F551F661F771F319749F797
:100730008C019D010F7711272227332700341105E3
:100740002105310559F487FD09C0452B462B472B60
:1007500029F0805C9F4FAF4FBF4F80788D879E8779
:10076000AF87B88BCE01099605C0CE01019602C0B5
:100770008EE091E00E943F056896E8E00C94B80C8A
:10078000A8E1B0E0E6ECF3E00C94A20C6D8B7E8B5C
:100790008F8B988F298B3A8B4B8B5C8BBE01675F5D
:1007A0007F4FCE0145960E940906BE016F5F7F4FC5
:1007B000CE0141960E9409068985823058F08981D0
:1007C000823040F0BE016F5F7F4FCE0109960E94DC
:1007D000780601C08FEF6896E2E00C94BE0CA8E1A9
:1007E000B0E0E5EFF3E00C94A20C6D8B7E8B8F8B69
:1007F000988F298B3A8B4B8B5C8BBE01675F7F4F49
:10080000CE0145960E940906BE016F5F7F4FCE0163
:1008100041960E9409068985823058F0898182308C
:1008200040F0BE016F5F7F4FCE0109960E947806AF
:1008300001C08FEF6896E2E00C94BE0CA8E0B0E037
:10084000E4E2F4E00C94A00C23E029838B019C01EA
:10085000002737FD0395112722273327402F0A83CE
:10086000611571058105910519F482E0898335C010
:100870002EE130E03C832B83442371F06115710538
:10088000810520E8920771F1002711279801061BC6
:10089000170B280B390B02C08B019C01C901B80151
:1008A0000E94C90C0197181619062CF00D831E839F
:1008B0002F83388712C0082E04C0000F111F221F7B
:1008C000331F0A94D2F70D831E832F8338872EE1BE
:1008D00030E0281B390B3C832B83CE0101960E940C
:1008E0003F0504C060E070E080E09FEC2896E4E003
:1008F0000C94BC0CACE0B0E0E0E8F4E00C94A00C8C
:1009000069877A878B879C87BE016F5F7F4FCE0197
:1009100009960E9409068981823091F1823080F126
:10092000843041F48A81882331F100E010E020E036
:1009300030E829C02B813C8137FD22C02F313105A1
:100940008CF78EE190E0821B930B0D811E812F812D
:10095000388504C036952795179507958A95D2F75F
:100960008A81882381F030952095109501951F4F3D
:100970002F4F3F4F08C00FEF1FEF2FEF3FE703C090
:1009800000E010E09801B801C9012C96E4E00C9455
:10099000BC0CA8E0B0E0EFECF4E00C949C0C8B01F4
:1009A0009C011A82611571058105910519F482E097
:1009B00089835DC083E089834EE150E05C834B8393
:1009C000C901B8010E94C90C019797FF39C0EE27F1
:1009D000FF27E81BF90B41E050E060E070E00E2ECD
:1009E00004C0440F551F661F771F0A94D2F7415069
:1009F0005109610971094023512362237323C12CDA
:100A0000D12C7601C394452B462B472B19F4C12CCE
:100A1000D12C760104C03695279517950795EA9550
:100A2000D2F70C291D292E293F290D831E832F83E0
:100A300038872EE130E0281B390B3C832B8317C00D
:100A4000009729F40D831E832F83388710C0082E4A
:100A500004C0000F111F221F331F0A94D2F70D8309
:100A60001E832F833887481B590B5C834B83CE0131
:100A700001960E943F052896E8E00C94B80C0F936D
:100A80001F93CF93DF93DC0114964D915D916D918F
:100A90007C9117971196EC9111978C91823020F4EC
:100AA00060618FEF90E0A6C0843009F49EC0823070
:100AB00009F495C0411551056105710509F492C00D
:100AC00012962D913C91139722388FEF38070CF036
:100AD00058C0C2E8DFEFC21BD30BCA31D1056CF599
:100AE0008A019B010C2E04C0369527951795079512
:100AF0000A94D2F781E090E0A0E0B0E00C2E04C0B0
:100B0000880F991FAA1FBB1F0A94D2F70197A1094A
:100B1000B10984239523A623B72341E050E060E088
:100B200070E0892B8A2B8B2B19F440E050E0BA013E
:100B3000402B512B622B732B03C040E050E0BA01D5
:100B4000DB01CA018F779927AA27BB27803491053B
:100B5000A105B10539F447FF09C0405C5F4F6F4FF5
:100B60007F4F04C0415C5F4F6F4F7F4F81E090E04B
:100B700041155105610520E4720748F580E090E0D9
:100B800026C0203831058CF5DB01CA018F77992703
:100B9000AA27BB2780349105A105B10539F447FF89
:100BA00009C0405C5F4F6F4F7F4F04C0415C5F4F97
:100BB0006F4F7F4F77FD04C0C90181589F4F07C019
:100BC0007695679557954795C90180589F4F97E04F
:100BD00076956795579547959A95D1F70BC080E024
:100BE00090E005C080E090E005C08FEF90E040E02D
:100BF00050E0BA01982F9695E0FB97F9362F80FBCD
:100C000037F9642F752F832FDF91CF911F910F91AB
:100C10000895CF92DF92EF92DC01FB01CC90119608
:100C2000DC90119712968C9112973FE7E32EE82201
:100C30006E2DA60170E0982F991F9927991F139682
:100C40002C91822F880F892B90E027FB222720F9F7
:100C50002183009729F5411551056105710511F4AE
:100C600082E027C082E89FEF9383828327E0440FCE
:100C7000551F661F771F2A95D1F783E0808309C02F
:100C8000440F551F661F771F8281938101979383BD
:100C9000828341155105610580E4780788F320C0FF
:100CA0008F3F910579F4411551056105710519F4DE
:100CB00084E0808319C0E4FE03C081E0808310C01B
:100CC00010820EC08F5791099383828383E08083C3
:100CD00087E0440F551F661F771F8A95D1F7706410
:100CE0004483558366837783EF90DF90CF90089598
:100CF000CF93FC01DB019081923008F452C08C91BB
:100D0000823008F44EC0943071F4843039F4119676
:100D10002C9130E08181281B310948C081818823D2
:100D200009F43FC03BC0843029F411968C918111A5
:100D300038C034C0923019F48230B9F735C08230EF
:100D400069F3C18111968C911197C8131DC022813E
:100D5000338112968D919C911397821793070CF40F
:100D600013C0281739070CF417C0448155816681D8
:100D7000778114968D919D910D90BC91A02D841733
:100D80009507A607B70718F4C11108C00AC048178D
:100D900059076A077B0740F4C11103C02FEF3FEFEB
:100DA00005C021E030E002C020E030E0C901CF9171
:100DB00008954F925F926F927F928F929F92AF921F
:100DC000BF92CF92DF92EF92FF920F931F93CF9338
:100DD000DF935C01EA018901882777FD8095982FD0
:100DE0000E941E042B013C01B501882777FD8095E8
:100DF000982F0E941E046B017C01A3019201C30184
:100E0000B2010E9438022B013C01A7019601C701E3
:100E1000B6010E9438029B01AC01C301B2010E94DD
:100E2000DC012B013C01752D972D0E94ED0C6B010F
:100E30007C0188EC8A9DB0018B9D700D1124882760
:100E400077FD8095982F0E941E044B015C019B0149
:100E5000AC01642D752D862D972D0E94080220E08F
:100E600030E44CE156E40E94DC010E94ED0CF801F4
:100E70006083718382839383A5019401642D752D12
:100E8000862D972D0E94DC0120E030E44CE156E4F1
:100E90000E94DC010E94ED0C688379838A839B8326
:100EA000F8012081318142815381C701B6010E943E
:100EB00038020E947A04882777FD8095982F0E9437
:100EC0001E0420E030E04CE952E40E941D03F801CA
:100ED0006083718382839383288139814A815B8116
:100EE000C701B6010E9438020E947A04882777FD64
:100EF0008095982F0E941E0420E030E04CE952E4D7
:100F00000E941D036B017C01982F4C2D5D2D692FD4
:100F10007F2D488359836A837B8320E030E04FE74D
:100F200053E4F80160817181828193810E94EF0313
:100F300087FD0DC080E090E0AFE7B3E4F801808367
:100F40009183A283B383C880D980EA80FB8020E0AC
:100F500030E04FE753E46C2D7D2D8E2D9F2D0E94A8
:100F6000EF0387FD08C080E090E0AFE7B3E488833B
:100F70009983AA83BB83DF91CF911F910F91FF903B
:100F8000EF90DF90CF90BF90AF909F908F907F9029
:100F90006F905F904F9008950F931F93CF93DF93BF
:100FA000CDB7DEB728970FB6F894DEBF0FBECDBF22
:100FB0008B011D821E821F82188619821A821B8253
:100FC0001C829E012B5F3F4FAE014F5F5F4F0E941F
:100FD000D9066D817E818F8198850E947A0467BDD4
:100FE00069817A818B819C810E947A0468BD8BB172
:100FF000101611066CF480698BB928960FB6F89418
:10100000DEBF0FBECDBFDF91CF911F910F9108952D
:101010008F768BB9F2CF17BC18BC089507C0EFE9E3
:10102000FFE03197F1F700C0000001970097B9F792
:10103000089505C025E02A95F1F700000197009773
:10104000C9F70895CF93CFE1289A8BE490E00E94EE
:10105000190828988BE490E00E941908C150A1F764
:10106000CF910895BC016350710983E89AE10E9411
:101070006A0C64507109CB0108951F93CF93DF93DD
:1010800015E0C0E0D0E080917A00806480937A001F
:1010900080917A0086FDFCCF809178009091790054
:1010A000C80FD91F89E190E00E941908115059F723
:1010B00081E0C93CD9400CF480E0DF91CF911F91D1
:1010C00008951F920F920FB60F9211242F938F93B2
:1010D0009F93EF93FF938091C0002091C600887189
:1010E000E0911801EF5FEF7190911701E91791F00E
:1010F000E0931801F0E0E55EFE4F20838093160137
:10110000FF91EF919F918F912F910F900FBE0F90B4
:101110001F90189582E0F2CF1F920F920FB60F9298
:1011200011248F939F93EF93FF9390911A018091D5
:1011300019019817A9F0E0911901EF5FEF71E093A1
:101140001901F0E0E55CFE4F80818093C600FF91BD
:10115000EF919F918F910F900FBE0F901F90189558
:101160008091C1008F7D8093C100F1CF10921A0150
:1011700010921901109218011092170197FF04C0E4
:1011800022E02093C0009F779093C5008093C40015
:1011900088E98093C10086E08093C2000895909111
:1011A000180180911701981791F0E0911701EF5FF6
:1011B000EF71E0931701F0E0E55EFE4F80819091C2
:1011C0001601392F20E0280F311DC901089520E0B4
:1011D00031E0C901089520911A012F5F2F7190917C
:1011E00019012917E1F3E22FF0E0E55CFE4F80835F
:1011F00020931A018091C10080628093C1000895FC
:10120000FC0120812223C9F0DC01119690911A0182
:101210009F5F9F71809119019817E1F3E92FF0E02A
:10122000E55CFE4F208390931A018091C10080629B
:101230008093C1002D912111E9CF08959C012F5F6A
:101240003F4FFC0184918823D1F040911A014F5FF8
:101250004F71909119014917E1F3A42FB0E0A55CFB
:10126000BE4F8C9340931A018091C100806280939D
:10127000C100F9012F5F3F4F84918111E6CF08959E
:101280008A30B9F020911A012F5F2F7190911901C6
:101290002917E1F3E22FF0E0E55CFE4F8083209315
:1012A0001A018091C10080628093C10080E090E0CB
:1012B000089520911A012F5F2F719091190129171C
:1012C000E1F3E22FF0E0E55CFE4F9DE09083209398
:1012D0001A019091C10090629093C100D3CF809188
:1012E00018012091170190E04F96821B91096FE140
:1012F00070E00E946A0C0895809117018093180194
:10130000089580EC97E2A9E0B0E0319907C0019719
:10131000A109B109D1F72FEF3FEF3BC01092800038
:10132000809180008F7780938000809180008F7BF8
:1013300080938000809180008F7D809380008091D9
:1013400080008F7E8093800082E0809381001092E5
:1013500085001092840080EC97E2A9E0B0E0319B18
:101360000CC0209184003091850021363A4E28F43B
:101370000197A109B10999F7CECF2091840030914E
:1013800085001092810021368AEE380720F02EEF7A
:101390003FEFC901089536952795C90108953A9AF6
:1013A000429882E090E00E941908429A8AE090E018
:1013B0000E941908429839980E9481098F3F2FEFA7
:1013C0009207C9F08E3F2FEF9207A9F0BC0180E091
:1013D00090E00E94C90420E030E048E652E40E9418
:1013E0001D030E945300862F8150873C20F481E02A
:1013F0006A3018F4089582E0089580E00895CF934C
:10140000C6E04AE057ED63EA7CE385E090E00E94A5
:101410005E0AC150B1F7CF910895EF92FF920F93FA
:101420001F93CF93DF93181619066CF52C9AEC01D5
:1014300097FD2DC09A01AB0160E070E080E89FE36A
:101440000E941D0320E030E04CE852E40E94380284
:101450000E947A04209781F07B0100E010E02D9A31
:10146000C7010E9419082D98C7010E9419080F5F33
:101470001F4F0C171D0799F7DF91CF911F910F9107
:10148000FF90EF9008952C98EC0197FFD3CFD19562
:10149000C195D109CFCFCF93CBE01B990CC04AE0C7
:1014A00057ED63EA7CE38BEF9FEF0E940D0AC1507A
:1014B000A1F7CF910895CF910C942208DF92EF927B
:1014C000FF920F931F93CF93DF9318161906F4F52D
:1014D0002C9AEC0197FD3EC09A01AB0160E070E0F0
:1014E00080E89FE30E941D0320E030E04CE852E4D6
:1014F0000E9438020E947A04E62ED72E209771F1BE
:1015000000E010E00FC02D9A8E2D9D2D0E9419082D
:101510002D988E2D9D2D0E9419080F5F1F4F0C17BF
:101520001D0789F00E94CF09F82E81E0F812EBCF59
:1015300021E030E0C901DF91CF911F910F91FF9021
:10154000EF90DF9008952F2D30E0F4CF2C98EC0130
:1015500097FFC2CFD195C195D109BECF20E030E031
:10156000E9CF8F929F92AF92BF92CF92DF92EF928C
:10157000FF926B017C0149015A0120E030E0A90192
:101580000E94C00318160CF043C02C9AC701B60184
:101590000E947A0477FD43C0882777FD8095982FB5
:1015A0000E941E0424EE38E34EE850E40E94380204
:1015B0000E947A047B01A501940160E070E080E85C
:1015C0009FE30E941D0320E030E04CE852E40E94BB
:1015D00038020E947A041E141F048CF45B01C12C93
:1015E000D12C2D9AC5010E9419082D98C5010E9481
:1015F00019088FEFC81AD80ACE14DF0491F7FF90AC
:10160000EF90DF90CF90BF90AF909F908F90089514
:101610002C98C701B6010E947A0477FFBDCF71955F
:1016200061957109B9CF4AE057ED63E27CE389E146
:1016300090E00E940D0A82E390E00E940E084AE0CA
:1016400057ED63E27CE387EE9FEF0E940D0A82E391
:1016500090E00C940E08EF92FF920F931F930115E8
:101660001105E1F0E114F104C9F070E090E8899F00
:10167000600D711D112430E0E0E84E9F200D311DFA
:101680001124685C7109F8016083285C3109F70155
:1016900020831F910F91FF90EF9008950E94E40C1A
:1016A000EF92FF920F931F938C017B010E946F09B1
:1016B000892BE1F30E94CF08823041F00E946F092C
:1016C000892BE1F30E94CF088230C1F70E946F0995
:1016D000892BE1F30E94CF0880935B010E946F0980
:1016E000892BE1F30E94CF0880935C010E946F096F
:1016F000892BE1F30E94CF0880935D010E946F095E
:10170000892BE1F30E94CF0880935E010E946F094C
:10171000892BE1F30E94CF0820915E0140915D0189
:1017200060915C0180915B010E942B0B1F910F91D6
:10173000FF90EF9008950F931F93CF93DF93EC01E9
:101740008B010E943D0888830E94CF09F8018083A5
:10175000DF91CF911F910F91089587E690E00E944D
:10176000B60880E091E09093620180936101089552
:101770002398089584B1806384B908958AB1806FF5
:101780008AB985B5877F85BD84B58D7F84BD84B5D5
:10179000816084BD84B5806884BD84B58F7B84BD41
:1017A00084B5806284BD84B58F7E84BD85B58B7F12
:1017B00085BD85B58D7F85BD85B5816085BD17BC2F
:1017C00018BC0895389880917C008F7780937C00B6
:1017D00080917C008F7B80937C0080917A00846074
:1017E00080937A0080917A008D7F80937A00809137
:1017F0007A008E7F80937A0080917A00806880934F
:101800007A0080917C00877F80937C0080917C00AF
:101810008B7F80937C0080917C008D7F80937C0007
:1018200080917C008E7F80937C0080917E0081601F
:1018300080937E0080917A00806480937A0080910A
:101840007A0086FDFCCF0895209A0895CF93DF9308
:1018500000D000D0CDB7DEB71C821B821A8219825D
:101860000E94AD0B209A0E94BE0B0E94E20B209AB0
:1018700078940E946F0918161906DCF71A821982EB
:10188000BE016D5F7F4FCE0104960E94500B8B818D
:1018900082336CF48A81811105C08981882379F0B3
:1018A000823069F00E940B080E942208E2CFBE013C
:1018B0006F5F7F4FCE0102960E949B0BEBCF6B8137
:1018C000772767FD70958C81992787FD90950E94F9
:1018D000CC07CFCF97FB072E16F4009407D077FDE7
:1018E00009D00E947E0C07FC05D03EF490958195AE
:1018F0009F4F0895709561957F4F0895AA1BBB1B5C
:1019000051E107C0AA1FBB1FA617B70710F0A61BFF
:10191000B70B881F991F5A95A9F780959095BC0120
:10192000CD0108952F923F924F925F926F927F92D6
:101930008F929F92AF92BF92CF92DF92EF92FF92DF
:101940000F931F93CF93DF93CDB7DEB7CA1BDB0B8B
:101950000FB6F894DEBF0FBECDBF09942A88398830
:1019600048885F846E847D848C849B84AA84B98437
:10197000C884DF80EE80FD800C811B81AA81B98143
:10198000CE0FD11D0FB6F894DEBF0FBECDBFED0157
:1019900008950E94D20C84FF0895CB010E94D20CBE
:1019A000805F0895AA27992329F4A85F982B11F442
:1019B00080E10895903118F4AD5F9295A395990F49
:1019C000E8F78A2F9927089581E090E0F8940C9425
:1019D000650D11F40EF44DC03EC05DD0D0F39923D7
:1019E000D9F3CEF39F57550B87FF46D00024A0E6CE
:1019F00040EA900180585695979528F4805C660FD0
:101A0000771F881F20F026173707480730F4621B1E
:101A1000730B840B202931294A2BA6951794079420
:101A2000202531254A2758F7660F771F881F20F099
:101A300026173707480730F4620B730B840B200D11
:101A4000311D411DA09581F7B901842F9158880F50
:101A50009695879508959F3F31F0915020F4879592
:101A600077956795B795880F911D9695879597F906
:101A700008959FEF80EC089591505040660F771FB6
:101A8000881FD2F7089557FD9058440F551F59F0FD
:101A90005F3F71F04795880F97FB991F61F09F3F5B
:101AA00079F087950895121613061406551FF2CF84
:101AB0004695F1DF08C0161617061806991FF1CFD4
:0E1AC00086957105610508940895F894FFCF8E
:101ACE0000000002000000004009000000000000BD
:061ADE0000000000000002
:00000001FF
